:020000040800F2
:1000000068050020450100084D0100084F01000867
:1000100051010008530100085501000800000000CC
:100020000000000000000000000000005701000870
:1000300059010008000000005B0100085D01000894
:100040005F0100085F0100085F0100085F01000810
:100050005F0100085F0100085F0100085F01000800
:100060005F010008E90200085F0100085F01000865
:100070005F0100085F0100085F0100085F010008E0
:100080005F0100085F0100085F0100085F010008D0
:100090005F0100085F0100085F01000859030008C4
:1000A0005F010008C90D00085F0100085F0100083A
:1000B000110F00085F0100085F0100085F010008E0
:1000C0005F0100085F0100085F0100085F01000890
:1000D0005F0100085F0100085F0100085F01000880
:1000E000B10100085F0100085F0100085F0100081E
:1000F0005F0100085F0100085F0100085F01000860
:100100005F0100085F0100085F0100085F0100084F
:100110005F0100085F0100085F0100085F0100083F
:100120005F0100085F0100085F0100085F0100082F
:10013000DFF80CD000F02AF800480047B11300089F
:10014000680500200648804706480047FEE7FEE7AE
:10015000FEE7FEE7FEE7FEE7FEE7FEE7FEE7FEE777
:10016000690D0008310100080649074A0868504334
:1001700043F23902104408604008704701490860A2
:1001800070470000240000206D4EC641064C074D0C
:1001900006E0E06840F0010394E807009847103457
:1001A000AC42F6D3FFF7C8FFFC3200081C3300084E
:1001B0004848006800F4005018B3464814380068F6
:1001C00020F400504349143908604248006840F464
:1001D00000504049086000200907888408460088CC
:1001E00040F0010008803C4890F82000012809D127
:1001F0000020394981F820000846806BC86301203F
:10020000486305E00320344981F8200033488863BF
:100210003048006800F4804018B32E481438006855
:1002200020F480402B49143908602A48006840F4C3
:100230008040284908600020090788840846008813
:1002400040F001000880244890F82000032809D1DC
:100250000020214981F820000846806BC8630120F6
:10026000486305E001201C4981F820001C48886390
:100270001848006800F4004018B3164814380068A5
:1002800020F400401349143908601248006840F413
:10029000004010490860002009078884084600884B
:1002A00040F0010008800C4890F82000042809D193
:1002B0000020094981F820000846806BC8630120AE
:1002C000486305E00220044981F82000054888635E
:1002D000704700001404014028000020BC150008ED
:1002E0003C1600083C1700081848006800F0080099
:1002F00018B316481438006820F008001349143960
:1003000008601248006840F00800104908600020AA
:10031000090788840846008840F0010008800C48DE
:1003200090F82000022809D10020094981F8200016
:100330000846806BC8630120486305E00420044937
:1003400081F82000034888637047000014040140CE
:1003500028000020BC1600080548006800F48070E2
:1003600028B10348006840F4807001490860704774
:100370001404014010B5F0234FF4A0720021084688
:1003800000F028FC222001F0C3F800BF00BF0024C9
:1003900004E00648008801F0C3F8641CB4F5963FF9
:1003A000F7D300BF00BF002010BD000006000020F2
:1003B0002DE9F04781468A4614461E46089F07FBF2
:1003C00004F06421B0FBF1F733462246514648461B
:1003D00000F000FC222001F09BF800BF00BF4FF0AE
:1003E000000811E000250BE0BD4204D30A48008854
:1003F00001F096F803E00948008801F091F86D1CBF
:10040000A542F1D308F10108B045EBD300BF00BF0E
:100410000020BDE8F0870000060000200400002056
:100420002DE9F05F8046894614461F46DDF828A076
:10043000D3463B4622464946404600F0CBFB2220AD
:1004400001F066F800BF00BF781E00FB04F50AE06B
:10045000002605E0A9193BF8110001F061F8761CAF
:10046000A642F7D32D1B002DF2DA00BF00BF0020FB
:10047000BDE8F09F2DE9F04781468A4616462E4892
:10048000006818B94FF0FF30BDE8F0872A480068CF
:100490004068361A284909680988C81DC11700EB49
:1004A00051714FEAE10824480068C16806FB08F072
:1004B000214A1268528800FB02151F4800684388D1
:1004C0001D48006802885146484600F083FB222000
:1004D00001F01EF800BF00BF002723E000241AE04F
:1004E000297804F00702114101F0010111B113490B
:1004F000098801E012490988084601F011F804F062
:100500000700072806D10C4800680088401EA0425A
:1005100000D06D1C641C084800680088A042DFD829
:100520006D1C7F1C044800684088B842D6D800BFC4
:1005300000BF0020A8E70000080000200400002001
:100540000600002070B505460E46144609E014F872
:10055000012B31462846FFF78DFF044800680088CC
:10056000054420780028F2D170BD0000080000206A
:1005700070B5FE48806940F2ED110843FB4988617F
:10058000FB48006800F0FF2444F0BB10F849086005
:10059000081D0068F74900EA0104F7482043F449C0
:1005A000091D0860F548006820F0704444F03040B0
:1005B000F24908604FF0BB30091D0860F048006840
:1005C00020F00F0444F00B00ED490860ED4840684E
:1005D000ED4900EA0104ED482043EA494860EC484F
:1005E0000068EB490860EA481038006820F00F0402
:1005F00044F00300E64910390860DC48406940F4E3
:100600008070DA49486140F205404107C86141F213
:1006100011208861322000F069FD0026304600F08C
:1006200077FF00F0DBFE0546472D7DD10120D9493B
:1006300008700021EA2000F077FF2021EB2000F075
:1006400073FF0C21EC2000F06FFFC721ED2000F0BC
:100650006BFF3821E82000F067FF1021E92000F04F
:1006600063FF0121F12000F05FFF1021F22000F074
:100670005BFF0121402000F057FF0021412000F0E6
:1006800053FF0021422000F04FFF1021432000F0D3
:100690004BFF0E21442000F047FF2421452000F0AD
:1006A00043FF0421462000F03FFF5021472000F087
:1006B0003BFF0221482000F037FF1321492000F0C2
:1006C00033FF19214A2000F02FFF19214B2000F0A1
:1006D0002BFF16214C2000F027FF1B21502000F09B
:1006E00023FF3121512000F01FFF2F21522000F065
:1006F0001BFF3F21532000F017FF3F21542000F043
:1007000013FF3E21552000F00FFF2F21562000F04F
:100710000BFF7B21572000F007FF0921582000F034
:1007200003FF0621592000E089E000F0FDFE0621CC
:100730005A2000F0F9FE0C215B2000F0F5FE1D218F
:100740005C2000F0F1FECC215D2000F0EDFE1B21CD
:10075000084600F0E9FE01211A2000F0E5FE2F21F5
:10076000242000F0E1FE5721252000F0DDFE882145
:10077000232000F0D9FE3621182000F0D5FE0121FB
:10078000192000F0D1FE0021012000F0CDFE8821CB
:100790001F2000F0C9FEC82000F0A8FC82211F2005
:1007A00000F0C2FE322000F0A1FC92211F2000F0D8
:1007B000BBFE322000F09AFCD2211F2000F0B4FED4
:1007C000322000F093FC5521172000F0ADFE0021EF
:1007D000084600F0A9FE11212F2000F0A5FE0021FF
:1007E000312000F0A1FE0021322000F09DFE3821D2
:1007F000282000F099FEC82000F078FC3C21282039
:1008000000F092FEA821162000F08EFE00210E209E
:1008100000F08AFE00210F2000F086FE012110204A
:1008200000F082FE4021112000F07EFE0021122007
:1008300000F07AFE0021132000F076FEA9E10020EE
:10084000544908704FF48071012000F06DFE4FF4A0
:10085000E061022000F068FE0021042000F064FE48
:1008600040F20721082000F05FFE0021092000F07F
:100870005BFE00210A2000F057FE00210C2000F052
:1008800053FE00210D2000F04FFE00210F2000F04C
:100890004BFE0021102000F047FE0021112000F047
:1008A00043FE0021122000F03FFE0021132000F043
:1008B0003BFEC82000F01AFC41F2B021102000F0ED
:1008C00033FE0721112000F02FFE322000F00EFC35
:1008D00040F2BD11122000F027FE322000F006FC8D
:1008E0004FF4A051132000F01FFE0E21292000F02C
:1008F0001BFE322000F0FAFB0021202000F014FE45
:100900000021212000F010FEA5F5A840083838B1DC
:10091000A0F57C50183800287DD005287CD167E0F0
:1009200040F60D31302000F0FFFD41F6231131205B
:1009300000F0FAFD41F62641322000F0F5FD42F2CA
:100940001C61332000F0F0FD42F21941342000F028
:10095000EBFD40F60B51352000F0E6FD41F20601BB
:10096000362000F0E1FD4FF4C26115E000100240B6
:100970000014014000F0FF00BB0B00BB0018014059
:10098000001C014000200140FFF0F0FF000B0B00B5
:10099000140801400C000020372000F0C5FD40F293
:1009A0000671382000F0C0FD4FF44171392000F08D
:1009B000BBFD40F605613A2000F0B6FD40F601614E
:1009C0003B2000F0B1FD4FF487713C2000F0ACFDFE
:1009D00040F20E513D2000F0A7FD40F203413E20C1
:1009E00000F0A2FD40F207613F2000F09DFD61E0B4
:1009F0000021302000F098FD40F20761312000F026
:100A000093FD40F20531322000F08EFD00213520AB
:100A100000F08AFD01E01DE01BE041F20461362098
:100A200000F082FD4FF40171372000F07DFD0121BF
:100A3000382000F079FD40F20771392000F074FD94
:100A400000213C2000F070FD0F213D2000F06CFDE6
:100A500030E000BF0621302000F066FD40F20111B9
:100A6000312000F061FD0321322000F05DFD4FF4E4
:100A70008371352000F058FD40F60231362000F039
:100A800053FD40F20231372000F04EFD40F2077175
:100A9000382000F049FD0721392000F045FD4FF4D2
:100AA000C0613C2000F040FD40F20B213D2000F0F1
:100AB0003BFD00BF00BF0021502000F035FDEF21BD
:100AC000512000F031FD0021522000F02DFD40F2B8
:100AD0003F11532000F028FDA5F5A840083830B19B
:100AE000A0F57C50183850B1052807D100E000BFB0
:100AF0004FF41C51602000F017FD06E000BF4FF4DA
:100B00002741602000F010FD00BF00BF01216120DF
:100B100000F00AFD00216A2000F006FD002180207F
:100B200000F002FD0021812000F0FEFC0021822067
:100B300000F0FAFC0021832000F0F6FC0021842064
:100B400000F0F2FC0021852000F0EEFC1021902046
:100B500000F0EAFC0021922000F0E6FC0321932043
:100B600000F0E2FC4FF48871952000F0DDFC0021DC
:100B7000972000F0D9FC0021982000F0D5FC41F22C
:100B80003801032000F0D0FC40F23711072000F0BC
:100B9000CBFC4FF4807002490860002070BD00005B
:100BA000100801400146024A1180002070470000F1
:100BB0000600002001460248016000207047000046
:100BC000080000200146024A118000207047000002
:100BD000040000202DE9F04704460D4616461F4646
:100BE0002648007860B3A019A0F10108E819A0F127
:100BF0000109C4F30F21022000F096FCE1B20320AA
:100C000000F092FCC8F30F21042000F08DFC08F0E6
:100C1000FF01052000F088FCC5F30F21062000F03D
:100C200083FCE9B2072000F07FFCC9F30F21082004
:100C300000F07AFC09F0FF01092000F075FC1BE0D0
:100C4000A9B2502000F070FCE819401E81B251207A
:100C500000F06AFCA1B2522000F066FCA019401E10
:100C600081B2532000F060FCA9B2202000F05CFCAF
:100C7000A1B2212000F058FCBDE8F0870C00002054
:100C800010B500F001F810BD0CB5002001900090E7
:100C90003348006840F480303149086000BF304874
:100CA000006800F4003000900198401C019000980A
:100CB00018B90198B0F5A06FF1D12948006800F487
:100CC000003010B10120009001E000200090009859
:100CD000012843D12348006840F0100021490860F2
:100CE0000846006820F0030008600846006840F0ED
:100CF000020008601A484068194948600846406880
:100D000048600846406840F4806048600846406893
:100D100020F47C1048600846406840F4E8104860C1
:100D20000846006840F08070086000BF0C4800680A
:100D300000F000700028F9D00948406820F0030056
:100D4000074948600846406840F00200486000BF1C
:100D50000348406800F00C000828F9D10CBD0000E1
:100D6000001002400020024010B51348006840F017
:100D700001001149086008464068104908400E49C2
:100D80004860084600680E4908400B49086008465C
:100D9000006820F4802008600846406820F4FE00C7
:100DA00048604FF41F008860FFF76AFF4FF0006053
:100DB0000449086010BD0000001002400000FFF868
:100DC000FFFFF6FE08ED00E04E48008800F001004D
:100DD00000287DD04B48008820F001004949088058
:100DE000494890F8200003281BD147480068401C60
:100DF000454908600846006889690844B0F59F7F46
:100E00005DDD4148806940F23F11081A3E490860A3
:100E1000002081F820000846806BC86301204863E9
:100E20004DE0394890F82000012812D1364800687A
:100E3000401E354908600846006800283FDC002055
:100E4000086081F820000846806BC8630120486371
:100E500035E02D4890F82000022812D12A48C068B9
:100E6000401E2949C8600846C068002827DC0020C9
:100E7000C86081F820000846806BC8630120486381
:100E80001DE0214890F82000042818D11E48C068B1
:100E9000401C1D49C8600846C068C9690844E52867
:100EA0000DDB1948C069C0F1E5001749C860002092
:100EB00081F820000846806BC8630120486312480F
:100EC00090F8200020B11048C06A401C0E4900E094
:100ED00016E0096B90FBF1F201FB12000A49C862AF
:100EE0000846C06A60B90846C06B896B884203D166
:100EF00006480549C86303E00348806B0249C8639C
:100F000070470000102C0140280000203C1500080C
:100F10004FF08040008A00F00100E0B14FF08040C7
:100F2000008A20F001004FF08041088208460088C6
:100F300020F001000880084800684EF208010843CC
:100F4000054908600448143800684EF20801084357
:100F500001491439086070471404014002E008C8D0
:100F6000121F08C1002AFAD170477047002001E023
:100F700001C1121F002AFBD1704700002F49896967
:100F800041F001012D4A91611146896941F0020148
:100F900091611146896941F00401916111468969A5
:100FA00041F0080191611146896941F02001916188
:100FB0001146896941F48071916121494968C1F301
:100FC0001300204901431E4A51601F49096821F45A
:100FD000704040F480411C4A11601C4909684EF27F
:100FE00008021143194A116018490C3909684EF278
:100FF00008021143154A0C3A11601549496901F07C
:101000000F0046F260610143114A5161114689683F
:10101000C1F30B0040F4405191600E49096841F45E
:1010200000714FF0E022C2F800111146D1F804110E
:1010300041F48071C2F804117047000000100240B2
:101040000020014000004044001401400C04014015
:101050000000014000E100E01048806940F40060B9
:101060000E49886147200E49088042F21070091D20
:1010700008800B481C38008840F0010008491C39E2
:10108000088007482838008840F0010004492839C2
:1010900008804FF00070034908607047001002405C
:1010A000282C014000E100E00A48C06940F001003E
:1010B0000849C8614720890408854FF47A708885FB
:1010C000C006808940F001008881881002490860CC
:1010D000704700000010024000E100E010B5002061
:1010E000FFF760FDFFF746F910BD000009490968E8
:1010F00042F21072B1FBF2F1484305E000BF00BFBD
:1011000000BF00BF00BF00BF011EA0F10100F5D16C
:10111000704700001000002008B50020FFF742FDD6
:101120004FF6FF70FFF74EFD1048FFF743FD10A28A
:101130000A216420FFF706FA0F4808231A463221D5
:1011400000906E20FFF76CF90C4808231A463221F4
:1011500000908C20FFF764F9094804231A463521D2
:101160000090AA20FFF75CF908BD0000EC320008EF
:101170005041432D4D414E00BC150008BC170008DE
:101180003C1A000810B50446FFF7A8FFFFF7C4FF9C
:1011900094B94FF47840FFF715FD12A26421084678
:1011A000FFF7D0F94FF6FF70FFF70CFD0FA28C216F
:1011B0006420FFF7C7F913E0012C11D14FF6FF703F
:1011C000FFF700FD07A264210846FFF7BBF94FF4C3
:1011D0007840FFF7F7FC05A28C216420FFF7B2F9F5
:1011E00010BD00004A6F756572000000517569748A
:1011F0007465720008B54FF4806001234FF4A0724B
:10120000E62100900020FFF7D3F80B48FFF7D2FC4F
:101210004FF6E070FFF7D6FC08A2E8211D20FFF78B
:1012200091F94FF47840FFF7CDFC04A2E821C820E3
:10123000FFF788F908BD0000DC32000853434F5225
:1012400045203A200000000000F0F4F81D4908880D
:10125000FEF794FF08201C498861C861002081F8CE
:1012600020004862012088620020C86214200863C0
:1012700001204863154888630846806BC863FEF701
:1012800073FF11498969C1F5A07190FBF1F201FB6F
:1012900012000D490860FEF767FF0B49C969C1F1EB
:1012A000F00190FBF1F201FB12000749C86008460B
:1012B0000068486008460068886002E0024800F064
:1012C000C1F8FBE7242C014028000020BC150008D1
:1012D00010B5FFF74DF9FFF701FF10BD214949682F
:1012E00021F0706040F080611E4A516011464968EB
:1012F00021F4700040F4800151601146496821F0EA
:10130000704040F0804151601749096821F47040F5
:1013100040F48041144A11601249496821F00F00DD
:1013200040F004010F4A51601146096821F07040F5
:1013300040F0804111600D49896941F020010B4A5C
:1013400091611146896941F4807191611146896901
:1013500041F0010191611146896941F002019161F9
:1013600070470000002001400014014000100240BE
:1013700010B5FFF703FEFFF76FFEFFF795FE10BDF8
:1013800002480068012121EAD0007047081401409A
:1013900002488068012121EAD010704700200140F6
:1013A00002488068012121EAD030704700200140C6
:1013B00010B5FFF78DFFFFF791FF0BE00020FFF75F
:1013C000E1FE00BF00F00EF80128FBD1FFF73CFF63
:1013D00000B100E0F2E700BF002010BD4FF0D840A0
:1013E0004088704710B5FFF7DBFF50B11048007818
:1013F000012806D100200E49087008460078FFF742
:10140000C1FEFFF7BDFF48B10948007830B901209F
:101410000749087008460078FFF7B4FEFFF7B8FFE9
:1014200020B10348007808B9012010BD0020FCE776
:101430000000002010B5FFF751FEFFF7DBFEFFF7BD
:1014400097FF10BDF8B504462068A168884210DDFA
:1014500020686060002000906568A668AA1BE369A8
:101460002169A068FEF7A4FF6068A06001206063A6
:1014700015E02068A168884211DA206860600020C9
:101480000090A5686668AA1B6568A669A819E36943
:101490002169FEF78DFF6068A06001206063E0684D
:1014A0006169884210DDE0682061002000902569B4
:1014B0006669AB1BA26961696068FEF779FF206904
:1014C00060610120606315E0E0686169884211DABB
:1014D000E06820610020009065692669AB1B2569E2
:1014E000E669A919A2696068FEF762FF2069606178
:1014F00001206063606B012809D100206063E06B0C
:101500000090E369A26921696068FEF789FFF8BD70
:101510004FF0D841088070474FF0D841488070475D
:101520004FF0D8414880704770B505460C462846B4
:10153000FFF7EEFF2046FFF7EFFF70BD0000000051
:10154000E0FFE0FFE0FFE0FF000000000000E0FF40
:10155000E0FFE0FFE0FFE0FFE0FF0000E0FFE0FF72
:10156000E0FFE0FFE0FFE0FFE0FFE0FFE0FFE0FF83
:10157000E0FFE0FFE0FFE0FFE0FFE0FFE0FFE0FF73
:10158000E0FFE0FFE0FFE0FFE0FFE0FFE0FFE0FF63
:10159000E0FFE0FFE0FFE0FFE0FFE0FF0000E0FF32
:1015A000E0FFE0FFE0FFE0FFE0FF000000000000E0
:1015B000E0FFE0FFE0FFE0FF0000000000000000AF
:1015C000E0FFE0FFE0FFE0FF000000000000E0FFC0
:1015D000E0FFE0FFE0FFE0FFE0FF0000E0FFE0FFF2
:1015E000E0FFE0FFE0FFE0FF00000000E0FFE0FFC1
:1015F000E0FFE0FFE0FF000000000000E0FFE0FF90
:10160000E0FFE0FFE0FF000000000000E0FFE0FF7F
:10161000E0FFE0FFE0FFE0FF000000000000E0FF6F
:10162000E0FFE0FFE0FFE0FFE0FF0000000000005F
:10163000E0FFE0FFE0FFE0FF00000000000000002E
:10164000E0FFE0FFE0FFE0FF000000000000E0FF3F
:10165000E0FFE0FFE0FFE0FFE0FF0000000000002F
:10166000E0FFE0FFE0FFE0FFE0FFE0FF0000000040
:101670000000E0FFE0FFE0FFE0FFE0FF000000000F
:101680000000E0FFE0FFE0FFE0FFE0FF00000000FF
:10169000E0FFE0FFE0FFE0FFE0FFE0FF0000E0FF31
:1016A000E0FFE0FFE0FFE0FFE0FF000000000000DF
:1016B000E0FFE0FFE0FFE0FF0000000000000000AE
:1016C0000000000000000000000000000000E0FF3B
:1016D0000000000000000000E0FF0000E0FFE0FF6D
:1016E000E0FF00000000E0FFE0FFE0FFE0FFE0FFC0
:1016F000E0FFE0FFE0FFE0FFE0FFE0FFE0FFE0FFF2
:10170000E0FFE0FFE0FFE0FFE0FFE0FFE0FFE0FFE1
:10171000E0FFE0FFE0FFE0FFE0FFE0FF0000E0FFB0
:10172000E0FFE0FFE0FFE0FFE0FF0000000000005E
:10173000E0FFE0FFE0FFE0FF00000000000000002D
:10174000E0FFE0FFE0FFE0FF000000000000E0FF3E
:10175000E0FFE0FFE0FFE0FFE0FF0000E0FFE0FF70
:10176000E0FFE0FFE0FFE0FFE0FFE0FFE0FFE0FF81
:10177000E0FFE0FFE0FFE0FFE0FFE0FFE0FFE0FF71
:10178000E0FFE0FFE0FFE0FFE0FFE0FFE0FFE0FF61
:10179000E0FF00000000E0FFE0FFE0FF0000E0FFEE
:1017A0000000000000000000E0FF0000000000005A
:1017B0000000000000000000000000000000000029
:1017C00000F800F800F800F800000000000000F841
:1017D00000F800F800F800F800F8000000F800F841
:1017E00000F800F800F800F800F800F800F800F839
:1017F00000F800F800F800F800F800F800F800F829
:1018000000F800F800F800F800F800F800F800F818
:1018100000F800F800F800F800F800F8000000F800
:1018200000F800F800F800F800F8000000000000E0
:1018300000F800F800F800F80000000000000000C8
:1018400000F800F800F800F800000000000000F8C0
:1018500000F800F800F800F800F8000000F800F8C0
:1018600000F800F800F800F80000000000F800F8A8
:1018700000F800F800F800000000000000F800F890
:1018800000F800F800F800000000000000F800F880
:1018900000F800F800F800F800000000000000F870
:1018A00000F800F800F800F800F800000000000060
:1018B00000F800F800F800F8000000000000000048
:1018C00000F800F800F800F800000000000000F840
:1018D00000F800F800F800F800F800000000000030
:1018E00000F800F800F800F800F800F80000000028
:1018F000000000F800F800F800F800F80000000010
:10190000000000F800F800F800F800F800000000FF
:1019100000F800F800F800F800F800F8000000F8FF
:1019200000F800F800F800F800F8000000000000DF
:1019300000F800F800F800F80000000000000000C7
:10194000000000000000000000000000000000F89F
:10195000000000000000000000F8000000F800F89F
:1019600000F80000000000F800F800F800F800F8A7
:1019700000F800F800F800F800F800F800F800F8A7
:1019800000F800F800F800F800F800F800F800F897
:1019900000F800F800F800F800F800F8000000F87F
:1019A00000F800F800F800F800F80000000000005F
:1019B00000F800F800F800F8000000000000000047
:1019C00000F800F800F800F800000000000000F83F
:1019D00000F800F800F800F800F8000000F800F83F
:1019E00000F800F800F800F800F800F800F800F837
:1019F00000F800F800F800F800F800F800F800F827
:101A000000F800F800F800F800F800F800F800F816
:101A100000F80000000000F800F800F8000000F8EE
:101A2000000000000000000000F8000000000000BE
:101A30000000000000000000000000000000FFFFA8
:101A4000FFFF0000FFFFFFFFFFFFFFFFFFFFFFFFA4
:101A5000FFFFFFFF0000FFFFFFFF0000000000008E
:101A60000000000004040404040004000A0A0A0040
:101A7000000000000A0A1F0A1F0A0A00041E050EC1
:101A8000140F0400031308040219180002050502CC
:101A9000150916000C0C04020000000008040202E4
:101AA0000204080002040808080402000004150EDD
:101AB0000E1504000004041F0404000000000000D0
:101AC0000C0C04020000001F0000000000000000D9
:101AD000000C0C0000100804020100000E11131588
:101AE00019110E000406040404040E000E11100E59
:101AF00001011F001F10080C10110E00080C0A092C
:101B00001F0808001F010F1010110E001C02010F0A
:101B100011110E001F101008040201000E11110E09
:101B200011110E000E11111E100807000000040014
:101B30000400000000000400040402001008040275
:101B40000408100000001F001F000000020408101D
:101B5000080402000E11100C040004000E11151DE3
:101B60000D011E00040A11111F1111000F11110F98
:101B700011110F000E11010101110E000F111111B1
:101B800011110F001F01010F01011F001F01010FA3
:101B9000010101001E11010119111E001111111F77
:101BA000111111000E04040404040E001C0808089E
:101BB00008090600110905030509110001010101C9
:101BC00001011F00111B151515111100111113151D
:101BD000191111000E11111111110E000F11110F19
:101BE000010101000E111111150916000F11110F3D
:101BF000050911000E11010E10110E001F1504042D
:101C0000040404001111111111110E001111111110
:101C1000110A04001111111515150A0011110A04F9
:101C20000A11110011110A04040404001F10080E07
:101C300002011F001E02020202021E000001020435
:101C4000081000001E10101010101E00040A1100D1
:101C5000000000000000000000001F00060604084D
:101C600000000000000006080E091E0001010D130F
:101C700011130D0000000E1101110E0010101619A5
:101C80001119160000000E111F010E000814040E99
:101C90000404040000000E191916100E01010D13A2
:101CA000111111000400060404040E0008000808C5
:101CB00008090600010109050305090006040404DA
:101CC00004040E0000000B151515150000000D137F
:101CD0001111110000000E1111110E0000000D1362
:101CE000130D0101000016191916101000000D1334
:101CF0000101010000001E010E100F0004041F046A
:101D0000041408000000111111191600000011112F
:101D1000110A04000000111115150A000000110A33
:101D2000040A1100000011111E10110E00001F08FE
:101D300004021F0008040402040408000404040050
:101D4000040404000204040804040200021508004C
:101D500000000000000000000000000000000C1265
:101D6000120C000000000C1E1E0C000000001E12D1
:101D7000121E000000001E1E1E1E000000000C0CA3
:101D8000121E000000000C0C1E1E000000001E129F
:101D90000C0C000000001E1E0C0C000000001816A9
:101DA000161800000000181E1E1800000000061A79
:101DB0001A0600000000061E1E06000000000C129D
:101DC000120C000000000C1E1E0C000000001E1271
:101DD000121E000000001E1E1E1E0000000000005B
:101DE00000000000000000000000000000000000F3
:101DF00000000000000000000000000000000000E3
:101E00000000000000000000000000000000800151
:101E100080018001800180018001800180018001BA
:101E200080018001800180010000000080018001AC
:101E300000000000000000000000000000000000A2
:101E4000CC00CC00CC00CC00CC00CC0000000000CA
:101E50000000000000000000000000000000000082
:101E60000000000000000000000000000000000072
:101E70000000000000000000600C600C600C3006E8
:101E80003006FE1FFE1F300638071803FE1FFE1F18
:101E9000180318038C018C018C01000000008000E5
:101EA000E003F80F9C0E8C1C8C188C009800F80135
:101EB000E007800E801C8C188C189C18B80CF00F52
:101EC000E00380008000000000000000000000002F
:101ED00000000E181B0C110C110611061103110342
:101EE0009B018E01C038C06C604460443044304473
:101EF0001844186C0C380000000000000000E001DD
:101F0000F0033807180618063003F001F000F80057
:101F10009C310E33061E061C061C063FFC73F02186
:101F200000000000000000000000000000000000B1
:101F30000C000C000C000C000C000C000000000059
:101F40000000000000000000000000000000000091
:101F5000000000000000000000000000000000027F
:101F600000038001C000C00060006000300030004D
:101F70003000300030003000300030006000600081
:101F8000C000C0008001000300020000000020002B
:101F90006000C0008001800100030003000600060D
:101FA0000006000600060006000600060003000307
:101FB00080018001C00060002000000000000000DF
:101FC0000000000000000000C000C000D806F807B4
:101FD000E0013003380700000000000000000000AE
:101FE00000000000000000000000000000000000F1
:101FF00000000000000000008001800180018001DD
:102000008001FC3FFC3F8001800180018001800154
:1020100000000000000000000000000000000000C0
:1020200000000000000000000000000000000000B0
:10203000000000000000000000000000000080011F
:10204000800100010001800000000000000000008D
:102050000000000000000000000000000000000080
:1020600000000000E007E0070000000000000000A2
:102070000000000000000000000000000000000060
:102080000000000000000000000000000000000050
:102090000000000000000000000000000000C00080
:1020A000C000000000000000000000000000000C64
:1020B000000C000600060006000300030003800376
:1020C000800180018001C000C000C000600060008D
:1020D0000000000000000000000000000000E0031D
:1020E000F007380E180C0C180C180C180C180C18DB
:1020F0000C180C180C180C18180C380EF007E0030C
:1021000000000000000000000000000000000001CE
:102110008001C001F00198018801800180018001E7
:1021200080018001800180018001800180018001A7
:102130000000000000000000000000000000E003BC
:10214000F80F180C0C180C1800180018000C0006DA
:1021500000038001C000600030001800FC1FFC1F5D
:102160000000000000000000000000000000E0018E
:10217000F807180E0C0C0C0C000C0006C003C0076E
:10218000000C001800180C180C18180CF807E003C5
:102190000000000000000000000000000000000C33
:1021A000000E000F000F800DC00C600C600C300C96
:1021B000180C0C0CFC3FFC3F000C000C000C000C3D
:1021C0000000000000000000000000000000F80F08
:1021D000F80F180018000C00EC03FC071C0E001C84
:1021E0000018001800180C181C0C180EF807E00353
:1021F0000000000000000000000000000000C00718
:10220000F00F381C181818000C00CC03EC0F3C0E13
:102210001C1C0C180C180C18181C380EF007E003C6
:102220000000000000000000000000000000FC1F93
:10223000FC1F000C00060006000380038001C001A3
:10224000C000E0006000600070003000300030002E
:102250000000000000000000000000000000E0039B
:10226000F007380E180C180C180C3806F007F00799
:10227000180C0C180C180C180C18380CF80FE0037C
:102280000000000000000000000000000000E0036B
:10229000F007380E1C0C0C180C180C181C1C381EDF
:1022A000F81BE0190018000C000C1C0EF807F001D8
:1022B000000000000000000000000000000000001E
:1022C000000000000000000080018001000000000C
:1022D00000000000000000000000000080018001FC
:1022E00000000000000000000000000000000000EE
:1022F00000000000000000008001800100000000DC
:1023000000000000000000000000000080018001CB
:10231000000100018000000000000000000000003B
:102320000000000000000000000000000010001C81
:10233000800FE003F8001800F800E003800F001C95
:10234000001000000000000000000000000000007D
:10235000000000000000000000000000F81F000066
:1023600000000000F81F0000000000000000000056
:10237000000000000000000000000000000000005D
:10238000000000000000000000000000080038000D
:10239000F001C007001F0018001FC007F00138003F
:1023A0000800000000000000000000000000E00342
:1023B000F80F180C0C180C180018000C000600037D
:1023C0008001C000C000C00000000000C000C000CC
:1023D00000000000000000000000000000000000FD
:1023E000E00718180420C229224A1144094409446C
:1023F000094409221113E20C024004201818E007D6
:102400000000000000000000000000000000800349
:102410008003C006C006C006600C600C301830187F
:102420003018F83FF83F1C700C600C6006C006C006
:102430000000000000000000000000000000FC039D
:10244000FC0F0C0C0C180C180C180C0CFC07FC0FD7
:102450000C180C300C300C300C300C18FC1FFC0726
:102460000000000000000000000000000000C007A5
:10247000F01F38381C300C7006600600060006009D
:1024800006000600060006600C701C30F01FE00716
:102490000000000000000000000000000000FE033B
:1024A000FE0F060E061806180630063006300630F7
:1024B00006300630063006180618060EFE0FFE031C
:1024C0000000000000000000000000000000FC3FD1
:1024D000FC3F0C000C000C000C000C00FC1FFC1F4F
:1024E0000C000C000C000C000C000C00FC3FFC3F2E
:1024F0000000000000000000000000000000F83FA5
:10250000F83F18001800180018001800F81FF81FEE
:1025100018001800180018001800180018001800FB
:102520000000000000000000000000000000E00FBC
:10253000F83F3C780E6006E007C00300030003FE8E
:1025400003FE03C007C006C00EC03CF0F83FE00F1A
:1025500000000000000000000000000000000C303F
:102560000C300C300C300C300C300C30FC3FFC3F8D
:102570000C300C300C300C300C300C300C300C307B
:1025800000000000000000000000000000008001CA
:102590008001800180018001800180018001800133
:1025A0008001800180018001800180018001800123
:1025B0000000000000000000000000000000000615
:1025C00000060006000600060006000600060006DB
:1025D000000600060006180618063807F003E0019A
:1025E00000000000000000000000000000000630B5
:1025F0000618060C060606038601C600660076006D
:10260000DE008E0106030606060C0618063006607C
:1026100000000000000000000000000000001800A2
:1026200018001800180018001800180018001800EA
:10263000180018001800180018001800F81FF81FDC
:1026400000000000000000000000000000000EE09C
:102650001EF01EF01EF036D836D836D836D866CCE6
:1026600066CC66CCC6C6C6C6C6C6C6C686C386C344
:1026700000000000000000000000000000000C301E
:102680001C303C303C306C306C30CC30CC308C3139
:102690000C330C330C360C360C3C0C3C0C380C3028
:1026A0000000000000000000000000000000E00743
:1026B000F81F1C380E70066003C003C003C003C0BF
:1026C00003C003C003C006600E701C38F81FE0078B
:1026D0000000000000000000000000000000FC0FEF
:1026E000FC1F0C380C300C300C300C300C18FC1F5C
:1026F000FC070C000C000C000C000C000C000C0083
:102700000000000000000000000000000000E007E2
:10271000F81F1C380E70066003E003C003C003C03E
:1027200003C003C007E006630E3F1C3CF83FE0F720
:1027300000C0000000000000000000000000FE0FCC
:10274000FE1F06380630063006300638FE1FFE072C
:1027500006030606060C0618061806300630066044
:102760000000000000000000000000000000E00386
:10277000F80F1C0C0C180C180C001C00F803E00FD0
:10278000001E0038063006300E301C1CF80FE00723
:102790000000000000000000000000000000FE7FBC
:1027A000FE7F800180018001800180018001800125
:1027B0008001800180018001800180018001800111
:1027C00000000000000000000000000000000C30CD
:1027D0000C300C300C300C300C300C300C300C3019
:1027E0000C300C300C300C300C301818F81FE0078F
:1027F0000000000000000000000000000000036076
:102800000630063006300C180C180C18180C180C72
:10281000380E30063006700760036003C001C00147
:102820000000000000000000000000000000036045
:10283000C361C361C361663366336633663366332F
:1028400066336C1B6C1B6C1B2C1A3C1E380E380E2E
:1028500000000000000000000000000000000FE089
:102860000C7018303018700C600EC00780038003A5
:10287000C003E006700C301C18180C300E6007E026
:10288000000000000000000000000000000003C085
:1028900006600C301C383818300C6006E007C003A6
:1028A0008001800180018001800180018001800120
:1028B0000000000000000000000000000000FC7F9D
:1028C000FC7F006000300018000C0006000380014F
:1028D000C0006000300018000C000600FE7FFE7F84
:1028E0000000000000000000000000000000E00305
:1028F000E003600060006000600060006000600055
:1029000060006000600060006000600060006000C7
:10291000600060006000E003E003000000003000A1
:102920003000600060006000C000C000C000C00156
:1029300080018001800100030003000300060006FF
:102940000000000000000000000000000000E003A4
:10295000E00300030003000300030003000300037F
:10296000000300030003000300030003000300034F
:10297000000300030003E003E00300000000000088
:10298000C001C00160036003600330063006180C0C
:10299000180C000000000000000000000000000013
:1029A0000000000000000000000000000000000027
:1029B0000000000000000000000000000000000017
:1029C0000000000000000000000000000000FFFF09
:1029D000FFFF0000000000000000000000000C00ED
:1029E0000C000C000C000C000C00000000000000AB
:1029F00000000000000000000000000000000000D7
:102A000000000000000000000000000000000000C6
:102A10000000000000000000F003F8071C0C0C0C84
:102A2000000FF00FF80C0C0C0C0C1C0FF80FF0182A
:102A3000000000000000000000000000000018007E
:102A40001800180018001800D803F80F380C1818D0
:102A500018181818181818181818380CF80FD80360
:102A60000000000000000000000000000000000066
:102A70000000000000000000C003F007300E180C3A
:102A80001800180018001800180C300EF007C003CA
:102A9000000000000000000000000000000000181E
:102AA0000018001800180018C01BF01F301C181860
:102AB00018181818181818181818301CF01FC01BF0
:102AC0000000000000000000000000000000000006
:102AD0000000000000000000C003F00F300C1818C8
:102AE000F81FF81F180018003818301CF00FC00726
:102AF0000000000000000000000000000000800F47
:102B0000C00FC000C000C000F007F007C000C00048
:102B1000C000C000C000C000C000C000C000C000B5
:102B200000000000000000000000000000000000A5
:102B30000000000000000000E00DF80F180E0C0C63
:102B40000C0C0C0C0C0C0C0C0C0C180EF80FE00DF3
:102B5000000C0C0C1C06F807F00100000000180027
:102B60001800180018001800D807F80F381C18189B
:102B700018181818181818181818181818181818D5
:102B80000000000000000000000000000000C00085
:102B9000C000000000000000C000C000C000C00075
:102BA000C000C000C000C000C000C000C000C00025
:102BB0000000000000000000000000000000C00055
:102BC000C000000000000000C000C000C000C00045
:102BD000C000C000C000C000C000C000C000C000F5
:102BE000C000C000C000F8007800000000000C0029
:102BF0000C000C000C000C000C0C0C060C038C01DF
:102C0000CC006C00FC009C018C030C030C060C0C2B
:102C10000000000000000000000000000000C000F4
:102C2000C000C000C000C000C000C000C000C000A4
:102C3000C000C000C000C000C000C000C000C00094
:102C40000000000000000000000000000000000084
:102C500000000000000000007C3CFF7EC7E383C151
:102C600083C183C183C183C183C183C183C183C144
:102C70000000000000000000000000000000000054
:102C800000000000000000009807F80F381C18181A
:102C900018181818181818181818181818181818B4
:102CA0000000000000000000000000000000000024
:102CB0000000000000000000C003F00F300C1818E6
:102CC00018181818181818181818300CF00FC00316
:102CD00000000000000000000000000000000000F4
:102CE0000000000000000000D803F80F380C18188E
:102CF00018181818181818181818380CF80FD803BE
:102D0000180018001800180018000000000000004B
:102D10000000000000000000C01BF01F301C18184D
:102D200018181818181818181818301CF01FC01B7D
:102D3000001800180018001800180000000000001B
:102D40000000000000000000B007F0037000300039
:102D500030003000300030003000300030003000F3
:102D60000000000000000000000000000000000063
:102D70000000000000000000E003F003380E180C13
:102D80003800F003C007000C180C380EF007E00301
:102D90000000000000000000000000000000000033
:102DA0008000C000C000C000F007F007C000C000F5
:102DB000C000C000C000C000C000C000C007800745
:102DC0000000000000000000000000000000000003
:102DD0000000000000000000181818181818181833
:102DE00018181818181818181818381CF01FE01997
:102DF00000000000000000000000000000000000D3
:102E000000000000000000000C18180C180C180C32
:102E1000300630063006600360036003C001C00165
:102E200000000000000000000000000000000000A2
:102E30000000000000000000C141C141C3616363A4
:102E4000636363633636363636361C1C1C1C1C1C0A
:102E50000000000000000000000000000000000072
:102E600000000000000000001C38381C300C600618
:102E7000C003C003C003C0036006300C381C1C38FC
:102E80000000000000000000000000000000000042
:102E900000000000000000001830301830187018D2
:102EA000600C600CE00CC006C00680038003800349
:102EB00080018001C001F0007000000000000000EF
:102EC0000000000000000000FC1FFC1F000C0006BA
:102ED00000038001C000600030001800FC1FFC1FD0
:102EE00000000000000000000000000000000003DF
:102EF0008001C000C000C000C000C000C000600071
:102F00006000300060004000C000C000C000C00091
:102F1000C000C0008001000300000000000080012C
:102F20008001800180018001800180018001800199
:102F30008001800180018001800180018001800189
:102F4000800180018001800180010000000060009C
:102F5000C000C00180018001800180018001000368
:102F60000003000600030001800180018001800150
:102F700080018001C000600000000000000000002F
:102F8000000000000000000000000000F010F81F2A
:102F9000080F00000000000000000000000000001A
:102FA0000000000000000000000000000000000021
:102FB0000000000000000000000000000000000011
:102FC0000000000000000000000000000000000001
:102FD00000000000000000000000000000000000F1
:102FE000000000000000C003300C08100420042082
:102FF0000240024002400240024004200420081027
:10300000300CC003000000000000000000000000C1
:10301000000000000000C003F00FF81FFC3FFC3F61
:10302000FE7FFE7FFE7FFE7FFE7FFC3FFC3FF81FA2
:10303000F00FC003000000000000000000000000CE
:1030400000000000000000000000E007F00F18186A
:1030500018181818181818181818F00FE00700009A
:103060000000000000000000000000000000000060
:1030700000000000000000000000E007F00FF81F53
:10308000F81FF81FF81FF81FF81FF00FE0070000E7
:103090000000000000000000000000000000000030
:1030A0000000000000000000000000000000000020
:1030B000000000008001C0036006300C18181818CA
:1030C000F81FF81F000000000000000000000000D2
:1030D00000000000000000000000000000000000F0
:1030E000000000008001C003E007F00FF81FF81F88
:1030F000F81FF81F000000000000000000000000A2
:1031000000000000F81FF81F18181818300C60068F
:10311000C00380010000000000000000000000006B
:10312000000000000000000000000000000000009F
:1031300000000000F81FF81FF81FF81FF00FE0074D
:10314000C00380010000000000000000000000003B
:10315000000000000000000000000000000000006F
:1031600000000000000000000000E001F0019801F4
:103170008C01860186018C019801F001E0010000BC
:10318000000000000000000000000000000000003F
:1031900000000000000000000000E001F001F80164
:1031A000FC01FE01FE01FC01F801F001E00100005C
:1031B000000000000000000000000000000000000F
:1031C000000000000000000000008007800F801950
:1031D00080318061806180318019800F800700001C
:1031E00000000000000000000000000000000000DF
:1031F000000000000000000000008007800F801F1A
:10320000803F807F807F803F801F800F800700008D
:103210000000000000000000000000000000C001ED
:1032200020022002400130060808080808080808A3
:1032300008080808080820022002200220022002B4
:103240002002200220022002200200000000C00113
:10325000E003E003C001F007D80DD80DD80DD80D5C
:10326000D80DD80DD80D60036003600360036003C0
:103270006003600360036003600300000000C0019E
:10328000200220024001300608080808080804103F
:103290000220022040012002200210040808080831
:1032A0000410041004200440000000000000C001CD
:1032B000E003E003C001F007D80DD80DD80DCC19FC
:1032C000C631C261C001600360037006380C180C7F
:1032D0000C180C180C300C600000000006000800F0
:1032E00020000000700000005C1A000810001800A8
:1032F0002000000070000000DC1D00081C330008E6
:1033000000000020280000005C0F00084433000883
:1033100028000020400500006C0F0008000000009D
:103320000000FFFF000000000000000000A24A04AF
:103330000000000000000000010203040607080965
:043340000000000089
:0400000508000145A9
:00000001FF
