:020000040800F2
:1000000070050020450100084D0100084F0100085F
:1000100051010008530100085501000800000000CC
:100020000000000000000000000000005701000870
:1000300059010008000000005B0100085D01000894
:100040005F0100085F0100085F0100085F01000810
:100050005F0100085F0100085F0100085F01000800
:100060005F010008E90200085F0100085F01000865
:100070005F0100085F0100085F0100085F010008E0
:100080005F0100085F0100085F0100085F010008D0
:100090005F0100085F0100085F01000859030008C4
:1000A0005F010008C90D00085F0100085F0100083A
:1000B000310F00085F0100085F0100085F010008C0
:1000C0005F0100085F0100085F0100085F01000890
:1000D0005F0100085F0100085F0100085F01000880
:1000E000B10100085F0100085F0100085F0100081E
:1000F0005F0100085F0100085F0100085F01000860
:100100005F0100085F0100085F0100085F0100084F
:100110005F0100085F0100085F0100085F0100083F
:100120005F0100085F0100085F0100085F0100082F
:10013000DFF80CD000F02AF80048004771160008DC
:10014000700500200648804706480047FEE7FEE7A6
:10015000FEE7FEE7FEE7FEE7FEE7FEE7FEE7FEE777
:10016000690D0008310100080649074A0868504334
:1001700043F23902104408604008704701490860A2
:1001800070470000280000206D4EC641064C074D08
:1001900006E0E06840F0010394E807009847103457
:1001A000AC42F6D3FFF7C8FF68380008883800086B
:1001B0004848006800F4005018B3464814380068F6
:1001C00020F400504349143908604248006840F464
:1001D00000504049086000200907888408460088CC
:1001E00040F0010008803C4890F82000012809D127
:1001F0000020394981F820000846806BC86301203F
:10020000486305E00320344981F8200033488863BF
:100210003048006800F4804018B32E481438006855
:1002200020F480402B49143908602A48006840F4C3
:100230008040284908600020090788840846008813
:1002400040F001000880244890F82000032809D1DC
:100250000020214981F820000846806BC8630120F6
:10026000486305E001201C4981F820001C48886390
:100270001848006800F4004018B3164814380068A5
:1002800020F400401349143908601248006840F413
:10029000004010490860002009078884084600884B
:1002A00040F0010008800C4890F82000042809D193
:1002B0000020094981F820000846806BC8630120AE
:1002C000486305E00220044981F82000054888635E
:1002D00070470000140401402C000020281B000877
:1002E000A81B0008A81C00081848006800F00800B7
:1002F00018B316481438006820F008001349143960
:1003000008601248006840F00800104908600020AA
:10031000090788840846008840F0010008800C48DE
:1003200090F82000022809D10020094981F8200016
:100330000846806BC8630120486305E00420044937
:1003400081F82000034888637047000014040140CE
:100350002C000020281C00080548006800F480706C
:1003600028B10348006840F4807001490860704774
:100370001404014010B5F0234FF4A0720021084688
:1003800000F028FC222001F079FB00BF00BF002410
:1003900004E00648008801F079FB641CB4F5963F40
:1003A000F7D300BF00BF002010BD00000A000020EE
:1003B0002DE9F04781468A4614461E46089F07FBF2
:1003C00004F06421B0FBF1F733462246514648461B
:1003D00000F000FC222001F051FB00BF00BF4FF0F5
:1003E000000811E000250BE0BD4204D30A48008854
:1003F00001F04CFB03E00948008801F047FB6D1C4D
:10040000A542F1D308F10108B045EBD300BF00BF0E
:100410000020BDE8F08700000A000020080000204E
:100420002DE9F05F8046894614461F46DDF828A076
:10043000D3463B4622464946404600F0CBFB2220AD
:1004400001F01CFB00BF00BF781E00FB04F50AE0B2
:10045000002605E0A9193BF8110001F017FB761CF6
:10046000A642F7D32D1B002DF2DA00BF00BF0020FB
:10047000BDE8F09F2DE9F04781468A4616462E4892
:10048000006818B94FF0FF30BDE8F0872A480068CF
:100490004068361A284909680988C81DC11700EB49
:1004A00051714FEAE10824480068C16806FB08F072
:1004B000214A1268528800FB02151F4800684388D1
:1004C0001D48006802885146484600F083FB222000
:1004D00001F0D4FA00BF00BF002723E000241AE097
:1004E000297804F00702114101F0010111B113490B
:1004F000098801E012490988084601F0C7FA04F0AA
:100500000700072806D10C4800680088401EA0425A
:1005100000D06D1C641C084800680088A042DFD829
:100520006D1C7F1C044800684088B842D6D800BFC4
:1005300000BF0020A8E700000C00002008000020F9
:100540000A00002070B505460E46144609E014F86E
:10055000012B31462846FFF78DFF044800680088CC
:10056000054420780028F2D170BD00000C00002066
:1005700070B5FE48806940F2ED110843FB4988617F
:10058000FB48006800F0FF2444F0BB10F849086005
:10059000081D0068F74900EA0104F7482043F449C0
:1005A000091D0860F548006820F0704444F03040B0
:1005B000F24908604FF0BB30091D0860F048006840
:1005C00020F00F0444F00B00ED490860ED4840684E
:1005D000ED4900EA0104ED482043EA494860EC484F
:1005E0000068EB490860EA481038006820F00F0402
:1005F00044F00300E64910390860DC48406940F4E3
:100600008070DA49486140F205404107C86141F213
:1006100011208861322000F0B3FD0026304601F041
:100620002DFA01F091F90546472D7DD10120D949D8
:1006300008700021EA2001F02DFA2021EB2001F0C2
:1006400029FA0C21EC2001F025FAC721ED2001F058
:1006500021FA3821E82001F01DFA1021E92001F0EB
:1006600019FA0121F12001F015FA1021F22001F010
:1006700011FA0121402001F00DFA0021412001F082
:1006800009FA0021422001F005FA1021432001F06F
:1006900001FA0E21442001F0FDF92421452001F04A
:1006A000F9F90421462001F0F5F95021472001F025
:1006B000F1F90221482001F0EDF91321492001F060
:1006C000E9F919214A2001F0E5F919214B2001F03F
:1006D000E1F916214C2001F0DDF91B21502001F039
:1006E000D9F93121512001F0D5F92F21522001F003
:1006F000D1F93F21532001F0CDF93F21542001F0E1
:10070000C9F93E21552001F0C5F92F21562001F0ED
:10071000C1F97B21572001F0BDF90921582001F0D2
:10072000B9F90621592000E089E001F0B3F906216A
:100730005A2001F0AFF90C215B2001F0ABF91D212B
:100740005C2001F0A7F9CC215D2001F0A3F91B2169
:10075000084601F09FF901211A2001F09BF92F2191
:10076000242001F097F95721252001F093F98821E1
:10077000232001F08FF93621182001F08BF9012197
:10078000192001F087F90021012001F083F9882167
:100790001F2001F07FF9C82000F0F2FC82211F2009
:1007A00001F078F9322000F0EBFC92211F2001F0DB
:1007B00071F9322000F0E4FCD2211F2001F06AF927
:1007C000322000F0DDFC5521172001F063F90021F3
:1007D000084601F05FF911212F2001F05BF900219B
:1007E000312001F057F90021322001F053F938216E
:1007F000282001F04FF9C82000F0C2FC3C2128203D
:1008000001F048F9A821162001F044F900210E203A
:1008100001F040F900210F2001F03CF901211020E6
:1008200001F038F94021112001F034F900211220A3
:1008300001F030F90021132001F02CF9A9E100208A
:10084000544908704FF48071012001F023F94FF4EE
:10085000E061022001F01EF90021042001F01AF9E4
:1008600040F20721082001F015F90021092001F0CC
:1008700011F900210A2001F00DF900210C2001F0EE
:1008800009F900210D2001F005F900210F2001F0E8
:1008900001F90021102001F0FDF80021112001F0E4
:1008A000F9F80021122001F0F5F80021132001F0E1
:1008B000F1F8C82000F064FC41F2B021102001F0F2
:1008C000E9F80721112001F0E5F8322000F058FC8A
:1008D00040F2BD11122001F0DDF8322000F050FC92
:1008E0004FF4A051132001F0D5F80E21292001F07A
:1008F000D1F8322000F044FC0021202001F0CAF899
:100900000021212001F0C6F8A5F5A840083838B12B
:10091000A0F57C50183800287DD005287CD167E0F0
:1009200040F60D31302001F0B5F841F623113120A9
:1009300001F0B0F841F62641322001F0ABF842F266
:100940001C61332001F0A6F842F21941342001F075
:10095000A1F840F60B51352001F09CF841F2060158
:10096000362001F097F84FF4C26115E00010024004
:100970000014014000F0FF00BB0B00BB0018014059
:10098000001C014000200140FFF0F0FF000B0B00B5
:100990001408014010000020372001F07BF840F2DD
:1009A0000671382001F076F84FF44171392001F0DA
:1009B00071F840F605613A2001F06CF840F60161EB
:1009C0003B2001F067F84FF487713C2001F062F89A
:1009D00040F20E513D2001F05DF840F203413E200F
:1009E00001F058F840F207613F2001F053F861E050
:1009F0000021302001F04EF840F20761312001F073
:100A000049F840F20531322001F044F80021352048
:100A100001F040F801E01DE01BE041F204613620E6
:100A200001F038F84FF40171372001F033F801215B
:100A3000382001F02FF840F20771392001F02AF830
:100A400000213C2001F026F80F213D2001F022F882
:100A500030E000BF0621302001F01CF840F2011107
:100A6000312001F017F80321322001F013F84FF480
:100A70008371352001F00EF840F60231362001F086
:100A800009F840F20231372001F004F840F2077112
:100A9000382000F0FFFF0721392000F0FBFF4FF462
:100AA000C0613C2000F0F6FF40F20B213D2000F039
:100AB000F1FF00BF00BF0021502000F0EBFFEF214D
:100AC000512000F0E7FF0021522000F0E3FF40F248
:100AD0003F11532000F0DEFFA5F5A840083830B1E3
:100AE000A0F57C50183850B1052807D100E000BFB0
:100AF0004FF41C51602000F0CDFF06E000BF4FF422
:100B00002741602000F0C6FF00BF00BF0121612027
:100B100000F0C0FF00216A2000F0BCFF002180200F
:100B200000F0B8FF0021812000F0B4FF00218220F6
:100B300000F0B0FF0021832000F0ACFF00218420F2
:100B400000F0A8FF0021852000F0A4FF10219020D4
:100B500000F0A0FF0021922000F09CFF03219320D1
:100B600000F098FF4FF48871952000F093FF00216A
:100B7000972000F08FFF0021982000F08BFF41F2BA
:100B80003801032000F086FF40F23711072000F003
:100B900081FF4FF4807002490860002070BD0000A2
:100BA000100801400146024A1180002070470000F1
:100BB0000A00002001460248016000207047000042
:100BC0000C0000200146024A1180002070470000FE
:100BD000080000202DE9F04704460D4616461F4642
:100BE0002648007860B3A019A0F10108E819A0F127
:100BF0000109C4F30F21022000F04CFFE1B20320F1
:100C000000F048FFC8F30F21042000F043FF08F074
:100C1000FF01052000F03EFFC5F30F21062000F084
:100C200039FFE9B2072000F035FFC9F30F21082092
:100C300000F030FF09F0FF01092000F02BFF1BE05E
:100C4000A9B2502000F026FFE819401E81B25120C1
:100C500000F020FFA1B2522000F01CFFA019401E9E
:100C600081B2532000F016FFA9B2202000F012FF3D
:100C7000A1B2212000F00EFFBDE8F0871000002097
:100C800010B500F001F810BD0CB5002001900090E7
:100C90003348006840F480303149086000BF304874
:100CA000006800F4003000900198401C019000980A
:100CB00018B90198B0F5A06FF1D12948006800F487
:100CC000003010B10120009001E000200090009859
:100CD000012843D12348006840F0100021490860F2
:100CE0000846006820F0030008600846006840F0ED
:100CF000020008601A484068194948600846406880
:100D000048600846406840F4806048600846406893
:100D100020F47C1048600846406840F4E8104860C1
:100D20000846006840F08070086000BF0C4800680A
:100D300000F000700028F9D00948406820F0030056
:100D4000074948600846406840F00200486000BF1C
:100D50000348406800F00C000828F9D10CBD0000E1
:100D6000001002400020024010B51348006840F017
:100D700001001149086008464068104908400E49C2
:100D80004860084600680E4908400B49086008465C
:100D9000006820F4802008600846406820F4FE00C7
:100DA00048604FF41F008860FFF76AFF4FF0006053
:100DB0000449086010BD0000001002400000FFF868
:100DC000FFFFF6FE08ED00E010B55448008800F083
:100DD000010000287ED05148008820F001004F49D2
:100DE00008804F4890F8200003281BD14C48006829
:100DF000401C4B4908600846006889690844B0F502
:100E00009F7F5DDD4648806940F23F11081A4449E2
:100E10000860002081F820000846806BC86301202C
:100E200048634DE03E4890F82000012812D13C482C
:100E30000068401E3A4908600846006800283FDC08
:100E40000020086081F820000846806BC8630120FC
:100E5000486335E0324890F82000022812D130482B
:100E6000C068401E2E49C8600846C068002827DCBC
:100E70000020C86081F820000846806BC86301200C
:100E800048631DE0264890F82000042818D1244823
:100E9000C068401C2249C8600846C068C969084447
:100EA000E5280DDB1E48C069C0F1E5001C49C8609B
:100EB000002081F820000846806BC8630120486349
:100EC000174890F82000E0B11548C06A401C14494A
:100ED000096B00E021E090FBF1F201FB12001049E8
:100EE000C8620846C06A60B90846C06B896B884210
:100EF00003D10C480A49C86303E00948806B0849DC
:100F0000C863002405E0084901EB841000F0D2FB1F
:100F1000641C064800688442F5DB10BD102C0140BB
:100F20002C000020A81A0008AC00002000000020BF
:100F30004FF08040008A00F00100E0B14FF08040A7
:100F4000008A20F001004FF08041088208460088A6
:100F500020F001000880084800684EF208010843AC
:100F6000054908600448143800684EF20801084337
:100F700001491439086070471404014002E008C8B0
:100F8000121F08C1002AFAD170477047002001E003
:100F900001C1121F002AFBD1704700002F49896947
:100FA00041F001012D4A91611146896941F0020128
:100FB00091611146896941F0040191611146896985
:100FC00041F0080191611146896941F02001916168
:100FD0001146896941F48071916121494968C1F3E1
:100FE0001300204901431E4A51601F49096821F43A
:100FF000704040F480411C4A11601C4909684EF25F
:1010000008021143194A116018490C3909684EF257
:1010100008021143154A0C3A11601549496901F05B
:101020000F0046F260610143114A5161114689681F
:10103000C1F30B0040F4405191600E49096841F43E
:1010400000714FF0E022C2F800111146D1F80411EE
:1010500041F48071C2F80411704700000010024092
:101060000020014000004044001401400C040140F5
:101070000000014000E100E01048806940F4006099
:101080000E49886147200E49088042F21070091D00
:1010900008800B481C38008840F0010008491C39C2
:1010A000088007482838008840F0010004492839A2
:1010B00008804FF00070034908607047001002403C
:1010C000282C014000E100E00A48C06940F001001E
:1010D0000849C8614720890408854FF47A708885DB
:1010E000C006808940F001008881881002490860AC
:1010F000704700000010024000E100E010B5002041
:10110000FFF750FDFFF736F910BD024610689369EE
:1011100018440B68984201DC0020704708688B690E
:1011200018441368984201DC0020F6E7D068D369C0
:101130001844CB68984201DC0020EEE7C868CB6910
:101140001844D368984201DC0020E6E70120E4E778
:1011500030B50546002409E0074800EB8411284615
:10116000FFF7D3FF08B1012030BD641C03480068BD
:101170008442F1DB0020F7E7AC00002000000020F3
:101180000949096842F21072B1FBF2F1484305E0E7
:1011900000BF00BF00BF00BF00BF00BF011EA0F125
:1011A0000100F5D1704700001400002070B5184B05
:1011B0001B680468191B164BDB68C4681A1B1346AE
:1011C0000C1E01DB254600E06542002B01DB1E46BC
:1011D00000E05E42B5420DDB002905DD032380F807
:1011E00020300C4B836312E0012380F820300A4B3F
:1011F00083630CE0002A05DD042380F82030074BD0
:10120000836304E0022380F82030054B836370BDC4
:101210006C000020A81D0008281E0008A81E000859
:10122000281F000808B50020FFF7BCFC4FF6FF7030
:10123000FFF7C8FC1448FFF7BDFC14A20A21642084
:10124000FFF780F9134808231A46322100906E20D8
:10125000FFF7E6F8104808231A46322100908C2048
:10126000FFF7DEF80D4804231A4635210090AA2026
:10127000FFF7D6F84FF6E070FFF7A4FC08A2C821EC
:101280000A20FFF75FF908BD583800085041432D88
:101290004D414E00281B0008281D0008A81F00080B
:1012A000436F6C696E2E4420262054686962617514
:1012B000742E4C0010B50446FFF720FFFFF7B2FF75
:1012C00094B94FF47840FFF77DFC12A264210846E0
:1012D000FFF738F94FF6FF70FFF774FC0FA28C216F
:1012E0006420FFF72FF913E0012C11D14FF6FF70A6
:1012F000FFF768FC07A264210846FFF723F94FF4C3
:101300007840FFF75FFC05A28C216420FFF71AF9F3
:1013100010BD00004A6F7565720000005175697458
:1013200074657200F8B505460E4600240BE00748C8
:1013300004EB4401009005EB410004231A46EB2125
:10134000FFF76EF8641CB442F1D1F8BDA81F000885
:1013500008B54FF4806001234FF4A072E62100909D
:101360000020FFF725F80B48FFF724FC4FF6E0704C
:10137000FFF728FC08A2E8211D20FFF7E3F84FF44F
:101380007840FFF71FFC04A2E821C820FFF7DAF835
:1013900008BD00004838000853434F5245203A200A
:1013A0000000000008B500250026002700F0F8FA2C
:1013B0006C490888FEF7E2FE08206B498861C86125
:1013C000002081F820004862012088620020C86265
:1013D0001420086301204863644888630846806BD2
:1013E000C863FEF7C1FE60498969C1F5A07190FB31
:1013F000F1F201FB12005C490860FEF7B5FE5A49A4
:10140000C969C1F1F00190FBF1F201FB12005649EC
:10141000C86008460068486008460068886054480C
:1014200000F066FA00F0D6F99BE04F4800F0C0FAF1
:10143000002405E04F4901EB841000F0B9FA641C68
:101440004D4800688442F5DB47494948FFF75DFE97
:1014500048B36D1C29465020FFF764FF032D0DD1C2
:101460004648FFF7A7FB4FF4FC60FFF7ABFB44A235
:1014700052211E20FFF766F800BFFEE700F0AAF930
:101480000020DFF8ECC00090DCF81C30DCF81820FD
:10149000DCF80C10DCF80000FEF78AFF344800F09E
:1014A00027FA00F0F5F83048FFF752FE68B13348EC
:1014B000FFF780FB4FF47840FFF784FB32A2522104
:1014C0001E20FFF73FF800BFFEE70024002741E0A1
:1014D000284901EB84102649FFF717FE0746C7B3DA
:1014E000761C3146FA20FFF71DFF032E0DD123484D
:1014F000FFF760FB4FF47840FFF764FB22A2522114
:101500001E20FFF71FF800BFFEE70020DFF860C0D5
:101510000090DCF81C30DCF81820DCF80C10DCF84B
:101520000000FEF745FF124800F0E2F900F0B0F8C5
:10153000104800EB8410806A01280ADD0D4901EB98
:101540008411886A00EBD07149100A4A02EB8412B8
:101550009162641C08480068844201DA002FB7D009
:1015600000BF62E7242C01402C000020281B00084B
:101570006C000020AC00002000000020583800085B
:101580004741474E45000000504552445500000079
:1015900010B5FEF7EDFFFFF7B1FD10BD2149496819
:1015A00021F0706040F080611E4A51601146496828
:1015B00021F4700040F4800151601146496821F027
:1015C000704040F0804151601749096821F4704033
:1015D00040F48041144A11601249496821F00F001B
:1015E00040F004010F4A51601146096821F0704033
:1015F00040F0804111600D49896941F020010B4A9A
:1016000091611146896941F480719161114689693E
:1016100041F0010191611146896941F00201916136
:1016200070470000002001400014014000100240FB
:1016300010B5FFF7B3FCFFF71FFDFFF745FD10BD29
:1016400002480068012121EAD000704708140140D7
:1016500002488068012121EAD01070470020014033
:1016600002488068012121EAD03070470020014003
:10167000FFF78EFFFFF792FF09E00020FFF71AFE49
:1016800000BF00F065F90128FBD1FFF78BFEF4E7FE
:1016900010B5002405E0054901EB841000F00AF8BC
:1016A000641C034800688442F5DB10BDAC000020D8
:1016B0000000002010B50446606A401CA16A90FB3F
:1016C000F1F201FB12006062606A00287CD194F89C
:1016D0002000012820D0022832D0032802D004287C
:1016E0005AD141E02068401C20602068A16908446C
:1016F000B0F59F7F07DDA06940F23F11081A206016
:101700002046FFF753FD206830490968884202D11E
:101710002046FFF74BFD40E02068401E2060206817
:10172000002804DC002020602046FFF73FFD2068F1
:1017300026490968884202D12046FFF737FD2CE090
:10174000E068401EE060E068002804DC0020E06003
:101750002046FFF72BFDE0681C49C968884202D18A
:101760002046FFF723FD18E0E068401CE060E068D9
:10177000E1690844E52806DBE069C0F1E500E060C6
:101780002046FFF713FDE0681049C968884202D17E
:101790002046FFF70BFD00E000BF00BF94F82000DB
:1017A00078B1E06A401C216B90FBF1F201FB120062
:1017B000E062E06A28B9E06BA16B884202D104487C
:1017C000E06301E0A06BE06310BD00006C0000204E
:1017D000281D000810B508204249434A126801EB51
:1017E000821188613F49404A126801EB8211C86149
:1017F00000213C483C4A126800EB821080F820101F
:1018000000203849384A126801EB821148620220F0
:101810003449354A126801EB82118862002031494F
:10182000314A126801EB8211C86214202D492E4AF8
:10183000126801EB8211086301202A492A4A1268C2
:1018400001EB8211486300BFFEF78EFC044600EBFB
:10185000D4704010A4EB400040F2371148432149B6
:10186000214A126801EB82110860FEF77DFC0446F4
:1018700000EBD4704010A4EB4000DD21484319492F
:10188000194A126801EB8211C8601649164A12689B
:1018900001EB8210FFF75CFC0028D5D11148124AF9
:1018A000126800EB82111148FFF72FFC0028CBD102
:1018B0000C490D4A126801EB8210FFF777FC0948CA
:1018C0000949096800EB8110816B0648064A1268D5
:1018D00000EB8210C16304480068401C02490860A4
:1018E00010BD0000AC000020000000206C000020B3
:1018F00038B504461248E0630420A061E06100BFEF
:10190000FEF732FC4FF49E7190FBF1F201FB1200E6
:101910002060FEF729FCE22190FBF1F201FB1200AE
:10192000E06008492046FFF7F0FB0028E8D1E06BB3
:101930000090E369A269E1682068FEF771FD38BD97
:10194000A81F00082C0000204FF0D84040887047A6
:1019500010B5FFF785FE50B110480078012806D178
:1019600000200E49087008460078FFF7A3FCFFF737
:1019700067FE48B10948007830B90120074908706E
:1019800008460078FFF796FCFFF762FE20B1034897
:10199000007808B9012010BD0020FCE704000020F9
:1019A00010B5FFF7ABFBFFF7D3FCFFF741FE10BD0F
:1019B000F8B504462068A168884210DD20686060A0
:1019C000002000906568A668AA1BE3692169A068E9
:1019D000FEF7EEFC6068A0600120606315E02068FF
:1019E000A168884211DA2068606000200090A56834
:1019F0006668AA1B6568A669A819E3692169FEF7EC
:101A0000D7FC6068A06001206063E068616988427B
:101A100010DDE06820610020009025696669AB1B3D
:101A2000A26961696068FEF7C3FC206960610120FA
:101A3000606315E0E0686169884211DAE06820615E
:101A40000020009065692669AB1B2569E669A91924
:101A5000A2696068FEF7ACFC2069606101206063E8
:101A6000606B012809D100206063E06B0090E3699E
:101A7000A26921696068FEF7D3FCF8BD4FF0D84138
:101A8000088070474FF0D841488070474FF0D841E8
:101A90004880704770B505460C462846FFF7EEFFB4
:101AA0002046FFF7EFFF70BD00000000E0FFE0FF01
:101AB000E0FFE0FF000000000000E0FFE0FFE0FFCB
:101AC000E0FFE0FFE0FF0000E0FFE0FFE0FFE0FFFD
:101AD000E0FFE0FFE0FFE0FFE0FFE0FFE0FFE0FF0E
:101AE000E0FFE0FFE0FFE0FFE0FFE0FFE0FFE0FFFE
:101AF000E0FFE0FFE0FFE0FFE0FFE0FFE0FFE0FFEE
:101B0000E0FFE0FFE0FFE0FF0000E0FFE0FFE0FFBC
:101B1000E0FFE0FFE0FF000000000000E0FFE0FF6A
:101B2000E0FFE0FF0000000000000000E0FFE0FF39
:101B3000E0FFE0FF000000000000E0FFE0FFE0FF4A
:101B4000E0FFE0FFE0FF0000E0FFE0FFE0FFE0FF7C
:101B5000E0FFE0FF00000000E0FFE0FFE0FFE0FF4B
:101B6000E0FF000000000000E0FFE0FFE0FFE0FF1A
:101B7000E0FF000000000000E0FFE0FFE0FFE0FF0A
:101B8000E0FFE0FF000000000000E0FFE0FFE0FFFA
:101B9000E0FFE0FFE0FF000000000000E0FFE0FFEA
:101BA000E0FFE0FF0000000000000000E0FFE0FFB9
:101BB000E0FFE0FF000000000000E0FFE0FFE0FFCA
:101BC000E0FFE0FFE0FF000000000000E0FFE0FFBA
:101BD000E0FFE0FFE0FFE0FF000000000000E0FFAA
:101BE000E0FFE0FFE0FFE0FF000000000000E0FF9A
:101BF000E0FFE0FFE0FFE0FF00000000E0FFE0FFAB
:101C0000E0FFE0FFE0FFE0FF0000E0FFE0FFE0FFBB
:101C1000E0FFE0FFE0FF000000000000E0FFE0FF69
:101C2000E0FFE0FF000000000000000000000000F6
:101C300000000000000000000000E0FF00000000C5
:101C400000000000E0FF0000E0FFE0FFE0FF000018
:101C50000000E0FFE0FFE0FFE0FFE0FFE0FFE0FF6B
:101C6000E0FFE0FFE0FFE0FFE0FFE0FFE0FFE0FF7C
:101C7000E0FFE0FFE0FFE0FFE0FFE0FFE0FFE0FF6C
:101C8000E0FFE0FFE0FFE0FF0000E0FFE0FFE0FF3B
:101C9000E0FFE0FFE0FF000000000000E0FFE0FFE9
:101CA000E0FFE0FF0000000000000000E0FFE0FFB8
:101CB000E0FFE0FF000000000000E0FFE0FFE0FFC9
:101CC000E0FFE0FFE0FF0000E0FFE0FFE0FFE0FFFB
:101CD000E0FFE0FFE0FFE0FFE0FFE0FFE0FFE0FF0C
:101CE000E0FFE0FFE0FFE0FFE0FFE0FFE0FFE0FFFC
:101CF000E0FFE0FFE0FFE0FFE0FFE0FFE0FF0000CB
:101D00000000E0FFE0FFE0FF0000E0FF0000000057
:101D100000000000E0FF00000000000000000000E4
:101D200000000000000000000000000000F800F8C3
:101D300000F800F800000000000000F800F800F8CB
:101D400000F800F800F8000000F800F800F800F8CB
:101D500000F800F800F800F800F800F800F800F8C3
:101D600000F800F800F800F800F800F800F800F8B3
:101D700000F800F800F800F800F800F800F800F8A3
:101D800000F800F800F800F8000000F800F800F88B
:101D900000F800F800F800000000000000F800F86B
:101DA00000F800F8000000000000000000F800F853
:101DB00000F800F800000000000000F800F800F84B
:101DC00000F800F800F8000000F800F800F800F84B
:101DD00000F800F80000000000F800F800F800F833
:101DE00000F800000000000000F800F800F800F81B
:101DF00000F800000000000000F800F800F800F80B
:101E000000F800F800000000000000F800F800F8FA
:101E100000F800F800F800000000000000F800F8EA
:101E200000F800F8000000000000000000F800F8D2
:101E300000F800F800000000000000F800F800F8CA
:101E400000F800F800F800000000000000F800F8BA
:101E500000F800F800F800F800000000000000F8AA
:101E600000F800F800F800F800000000000000F89A
:101E700000F800F800F800F80000000000F800F892
:101E800000F800F800F800F8000000F800F800F88A
:101E900000F800F800F800000000000000F800F86A
:101EA00000F800F800000000000000000000000042
:101EB0000000000000000000000000F8000000002A
:101EC0000000000000F8000000F800F800F8000032
:101ED000000000F800F800F800F800F800F800F83A
:101EE00000F800F800F800F800F800F800F800F832
:101EF00000F800F800F800F800F800F800F800F822
:101F000000F800F800F800F8000000F800F800F809
:101F100000F800F800F800000000000000F800F8E9
:101F200000F800F8000000000000000000F800F8D1
:101F300000F800F800000000000000F800F800F8C9
:101F400000F800F800F8000000F800F800F800F8C9
:101F500000F800F800F800F800F800F800F800F8C1
:101F600000F800F800F800F800F800F800F800F8B1
:101F700000F800F800F800F800F800F800F8000099
:101F8000000000F800F800F8000000F80000000071
:101F90000000000000F80000000000000000000049
:101FA00000000000000000000000FFFFFFFF000035
:101FB000FFFFFFFFFFFFFFFFFFFFFFFFFFFFFFFF31
:101FC0000000FFFFFFFF0000000000000000000015
:101FD00004040404040004000A0A0A0000000000CB
:101FE0000A0A1F0A1F0A0A00041E050E140F040025
:101FF000031308040219180002050502150916004A
:102000000C0C040200000000080402020204080094
:1020100002040808080402000004150E0E1504004E
:102020000004041F04040000000000000C0C040263
:102030000000001F0000000000000000000C0C0069
:1020400000100804020100000E11131519110E00F2
:102050000406040404040E000E11100E01011F00FA
:102060001F10080C10110E00080C0A091F080800A8
:102070001F010F1010110E001C02010F11110E0094
:102080001F101008040201000E11110E11110E0094
:102090000E11111E100807000000040004000000CB
:1020A00000000400040402001008040204081000E8
:1020B00000001F001F0000000204081008040200B6
:1020C0000E11100C040004000E11151D0D011E0050
:1020D000040A11111F1111000F11110F11110F001E
:1020E0000E11010101110E000F11111111110F003C
:1020F0001F01010F01011F001F01010F010101005C
:102100001E11010119111E001111111F11111100D1
:102110000E04040404040E001C0808080809060044
:1021200011090503050911000101010101011F0049
:10213000111B15151511110011111315191111008D
:102140000E11111111110E000F11110F01010100DB
:102150000E111111150916000F11110F05091100AB
:102160000E11010E10110E001F15040404040400CA
:102170001111111111110E0011111111110A040088
:102180001111111515150A0011110A040A11110077
:1021900011110A04040404001F10080E02011F009C
:1021A0001E02020202021E000001020408100000CA
:1021B0001E10101010101E00040A11000000000074
:1021C0000000000000001F000606040800000000D8
:1021D000000006080E091E0001010D1311130D0069
:1021E00000000E1101110E00101016191119160021
:1021F00000000E111F010E000814040E0404040058
:1022000000000E191916100E01010D131111110005
:102210000400060404040E0008000808080906006B
:1022200001010905030509000604040404040E0065
:1022300000000B151515150000000D1311111100EC
:1022400000000E1111110E0000000D13130D0101FD
:10225000000016191916101000000D1301010100DD
:1022600000001E010E100F0004041F0404140800D7
:10227000000011111119160000001111110A0400BB
:102280000000111115150A000000110A040A1100BE
:10229000000011111E10110E00001F0804021F0083
:1022A00008040402040408000404040004040400F4
:1022B00002040408040402000215080000000000E3
:1022C000000000000000000000000C12120C0000D2
:1022D00000000C1E1E0C000000001E12121E00004A
:1022E00000001E1E1E1E000000000C0C121E00002E
:1022F00000000C0C1E1E000000001E120C0C000042
:1023000000001E1E0C0C000000001816161800001D
:102310000000181E1E1800000000061A1A06000011
:102320000000061E1E06000000000C12120C000029
:1023300000000C1E1E0C000000001E12121E0000E9
:1023400000001E1E1E1E0000000000000000000015
:10235000000000000000000000000000000000007D
:10236000000000000000000000000000000000006D
:1023700000000000000000000000800180018001DA
:102380008001800180018001800180018001800145
:102390008001800100000000800180010000000039
:1023A000000000000000000000000000CC00CC0095
:1023B000CC00CC00CC00CC000000000000000000ED
:1023C000000000000000000000000000000000000D
:1023D00000000000000000000000000000000000FD
:1023E00000000000600C600C600C30063006FE1F20
:1023F000FE1F300638071803FE1FFE1F18031803C0
:102400008C018C018C01000000008000E003F80FBB
:102410009C0E8C1C8C188C009800F801E007800E34
:10242000801C8C188C189C18B80CF00FE0038000EE
:1024300080000000000000000000000000000E18F6
:102440001B0C110C11061106110311039B018E01C7
:10245000C038C06C60446044304430441844186C48
:102460000C380000000000000000E001F003380715
:10247000180618063003F001F000F8009C310E3306
:10248000061E061C061C063FFC73F021000000001F
:102490000000000000000000000000000C000C0024
:1024A0000C000C000C000C000000000000000000FC
:1024B000000000000000000000000000000000001C
:1024C0000000000000000000000000020003800186
:1024D000C000C000600060003000300030003000FC
:1024E000300030003000300060006000C000C000EC
:1024F0008001000300020000000020006000C00016
:1025000080018001000300030006000600060006AB
:10251000000600060006000600030003800180019B
:10252000C00060002000000000000000000000006B
:1025300000000000C000C000D806F807E00130032A
:10254000380700000000000000000000000000004C
:10255000000000000000000000000000000000007B
:102560000000000080018001800180018001FC3FAB
:10257000FC3F80018001800180018001000000009B
:10258000000000000000000000000000000000004B
:10259000000000000000000000000000000000003B
:1025A0000000000000000000000080018001000128
:1025B000000180000000000000000000000000009A
:1025C000000000000000000000000000000000000B
:1025D000E007E0070000000000000000000000002D
:1025E00000000000000000000000000000000000EB
:1025F00000000000000000000000000000000000DB
:1026000000000000000000000000C000C00000004A
:1026100000000000000000000000000C000C00069C
:102620000006000600030003000380038001800110
:102630008001C000C000C000600060000000000019
:1026400000000000000000000000E003F007380E6A
:10265000180C0C180C180C180C180C180C180C185A
:102660000C180C18180C380EF007E00300000000DE
:102670000000000000000000000000018001C00117
:10268000F0019801880180018001800180018001B2
:102690008001800180018001800180010000000034
:1026A00000000000000000000000E003F80F180C1C
:1026B0000C180C1800180018000C0006000380010C
:1026C000C000600030001800FC1FFC1F000000006C
:1026D00000000000000000000000E001F807180EF4
:1026E0000C0C0C0C000C0006C003C007000C0018FA
:1026F00000180C180C18180CF807E0030000000074
:1027000000000000000000000000000C000E000FA0
:10271000000F800DC00C600C600C300C180C0C0C01
:10272000FC3FFC3F000C000C000C000C0000000003
:1027300000000000000000000000F80FF80F180073
:1027400018000C00EC03FC071C0E001C00180018FD
:1027500000180C181C0C180EF807E003000000000D
:1027600000000000000000000000C007F00F381C4F
:10277000181818000C00CC03EC0F3C0E1C1C0C1895
:102780000C180C18181C380EF007E00300000000AD
:1027900000000000000000000000FC1FFC1F000CF7
:1027A00000060006000380038001C001C000E000B5
:1027B0006000600070003000300030000000000059
:1027C00000000000000000000000E003F007380EE9
:1027D000180C180C180C3806F007F007180C0C1819
:1027E0000C180C180C18380CF80FE003000000004F
:1027F00000000000000000000000E003F007380EB9
:102800001C0C0C180C180C181C1C381EF81BE0199A
:102810000018000C000C1C0EF807F001000000006E
:1028200000000000000000000000000000000000A8
:102830000000000080018001000000000000000096
:102840000000000000000000800180010000000086
:102850000000000000000000000000000000000078
:102860000000000080018001000000000000000066
:102870000000000000000000800180010001000154
:1028800080000000000000000000000000000000C8
:1028900000000000000000000010001C800FE0039A
:1028A000F8001800F800E003800F001C0010000082
:1028B0000000000000000000000000000000000018
:1028C0000000000000000000F81F000000000000F1
:1028D000F81F0000000000000000000000000000E1
:1028E00000000000000000000000000000000000E8
:1028F000000000000000000008003800F001C007E0
:10290000001F0018001FC007F00138000800000079
:1029100000000000000000000000E003F80F180CA9
:102920000C180C180018000C000600038001C000F1
:10293000C000C00000000000C000C0000000000097
:10294000000000000000000000000000E007181870
:102950000420C229224A1144094409440944092295
:102960001113E20C024004201818E00700000000D8
:102970000000000000000000000080038003C0068B
:10298000C006C006600C600C301830183018F83FD4
:10299000F83F1C700C600C6006C006C00000000010
:1029A00000000000000000000000FC03FC0F0C0C05
:1029B0000C180C180C180C0CFC07FC0F0C180C3025
:1029C0000C300C300C300C18FC1FFC070000000011
:1029D00000000000000000000000C007F01F3838B1
:1029E0001C300C700660060006000600060006009B
:1029F000060006600C701C30F01FE00700000000AD
:102A000000000000000000000000FE03FE0F060EA4
:102A10000618061806300630063006300630063036
:102A2000063006180618060EFE0FFE030000000012
:102A300000000000000000000000FC3FFC3F0C0014
:102A40000C000C000C000C00FC1FFC1F0C000C0008
:102A50000C000C000C000C00FC3FFC3F00000000D0
:102A600000000000000000000000F83FF83F1800E0
:102A70001800180018001800F81FF81F1800180098
:102A800018001800180018001800180000000000B6
:102A900000000000000000000000E00FF83F3C785C
:102AA0000E6006E007C00300030003FE03FE03C040
:102AB00007C006C00EC03CF0F83FE00F0000000069
:102AC000000000000000000000000C300C300C3052
:102AD0000C300C300C300C30FC3FFC3F0C300C3018
:102AE0000C300C300C300C300C300C30000000007E
:102AF0000000000000000000000080018001800153
:102B000080018001800180018001800180018001BD
:102B100080018001800180018001800100000000AF
:102B20000000000000000000000000060006000693
:102B30000006000600060006000600060006000665
:102B40000006180618063807F003E0010000000030
:102B50000000000000000000000006300618060C0F
:102B6000060606038601C60066007600DE008E01BA
:102B700006030606060C0618063006600000000074
:102B800000000000000000000000180018001800FD
:102B90001800180018001800180018001800180075
:102BA0001800180018001800F81FF81F0000000097
:102BB000000000000000000000000EE01EF01EF00B
:102BC0001EF036D836D836D836D866CC66CC66CC29
:102BD000C6C6C6C6C6C6C6C686C386C30000000033
:102BE000000000000000000000000C301C303C30F1
:102BF0003C306C306C30CC30CC308C310C330C33FE
:102C00000C360C360C3C0C3C0C380C300000000030
:102C100000000000000000000000E007F81F1C3862
:102C20000E70066003C003C003C003C003C003C02E
:102C300003C006600E701C38F81FE007000000009B
:102C400000000000000000000000FC0FFC1F0C381A
:102C50000C300C300C300C300C18FC1FFC070C0036
:102C60000C000C000C000C000C000C00000000001C
:102C700000000000000000000000E007F81F1C3802
:102C80000E70066003E003C003C003C003C003C0AE
:102C900007E006630E3F1C3CF83FE0F700C0000071
:102CA00000000000000000000000FE0FFE1F0638BC
:102CB0000630063006300638FE1FFE0706030606FD
:102CC000060C0618061806300630066000000000E4
:102CD00000000000000000000000E003F80F1C0CE2
:102CE0000C180C180C001C00F803E00F001E003834
:102CF000063006300E301C1CF80FE0070000000004
:102D000000000000000000000000FE7FFE7F800148
:102D100080018001800180018001800180018001AB
:102D2000800180018001800180018001000000009D
:102D3000000000000000000000000C300C300C30DF
:102D40000C300C300C300C300C300C300C300C30A3
:102D50000C300C300C301818F81FE0070000000091
:102D60000000000000000000000003600630063094
:102D700006300C180C180C18180C180C380E3006ED
:102D80003006700760036003C001C001000000004E
:102D9000000000000000000000000360C361C36188
:102DA000C3616633663366336633663366336C1BE2
:102DB0006C1B6C1B2C1A3C1E380E380E00000000D9
:102DC000000000000000000000000FE00C70183050
:102DD0003018700C600EC00780038003C003E0064B
:102DE000700C301C18180C300E6007E0000000005A
:102DF0000000000000000000000003C006600C306E
:102E00001C383818300C6006E007C00380018001D0
:102E100080018001800180018001800100000000AC
:102E200000000000000000000000FC7FFC7F00604C
:102E300000300018000C000600038001C000600094
:102E4000300018000C000600FE7FFE7F000000002E
:102E500000000000000000000000E003E00360004C
:102E60006000600060006000600060006000600062
:102E70006000600060006000600060006000600052
:102E80006000E003E003000000003000300060005C
:102E900060006000C000C000C000C001800180016F
:102EA000800100030003000300060006000000008C
:102EB00000000000000000000000E003E003000349
:102EC00000030003000300030003000300030003EA
:102ED00000030003000300030003000300030003DA
:102EE0000003E003E003000000000000C001C00197
:102EF00060036003600330063006180C180C0000F5
:102F000000000000000000000000000000000000C1
:102F100000000000000000000000000000000000B1
:102F200000000000000000000000000000000000A1
:102F300000000000000000000000FFFFFFFF000095
:102F4000000000000000000000000C000C000C005D
:102F50000C000C000C00000000000000000000004D
:102F60000000000000000000000000000000000061
:102F70000000000000000000000000000000000051
:102F800000000000F003F8071C0C0C0C000FF00F01
:102F9000F80C0C0C0C0C1C0FF80FF01800000000C3
:102FA00000000000000000000000180018001800D9
:102FB00018001800D803F80F380C1818181818182B
:102FC000181818181818380CF80FD803000000004B
:102FD00000000000000000000000000000000000F1
:102FE00000000000C003F007300E180C1800180095
:102FF00018001800180C300EF007C0030000000085
:103000000000000000000000000000180018001878
:1030100000180018C01BF01F301C181818181818BA
:10302000181818181818301CF01FC01B00000000DA
:103030000000000000000000000000000000000090
:1030400000000000C003F00F300C1818F81FF81F24
:10305000180018003818301CF00FC00700000000DE
:1030600000000000000000000000800FC00FC00042
:10307000C000C000F007F007C000C000C000C000E2
:10308000C000C000C000C000C000C00000000000C0
:103090000000000000000000000000000000000030
:1030A00000000000E00DF80F180E0C0C0C0C0C0CBE
:1030B0000C0C0C0C0C0C180EF80FE00D000C0C0C8A
:1030C0001C06F807F00100000000180018001800A6
:1030D00018001800D807F80F381C181818181818F6
:1030E00018181818181818181818181800000000C0
:1030F00000000000000000000000C000C000000050
:1031000000000000C000C000C000C000C000C0003F
:10311000C000C000C000C000C000C000000000002F
:1031200000000000000000000000C000C00000001F
:1031300000000000C000C000C000C000C000C0000F
:10314000C000C000C000C000C000C000C000C0007F
:10315000C000F8007800000000000C000C000C001B
:103160000C000C000C0C0C060C038C01CC006C0049
:10317000FC009C018C030C030C060C0C00000000EE
:1031800000000000000000000000C000C000C000FF
:10319000C000C000C000C000C000C000C000C0002F
:1031A000C000C000C000C000C000C000000000009F
:1031B000000000000000000000000000000000000F
:1031C000000000007C3CFF7EC7E383C183C183C154
:1031D00083C183C183C183C183C183C10000000057
:1031E00000000000000000000000000000000000DF
:1031F000000000009807F80F381C18181818181845
:10320000181818181818181818181818000000009E
:1032100000000000000000000000000000000000AE
:1032200000000000C003F00F300C18181818181810
:10323000181818181818300CF00FC0030000000000
:10324000000000000000000000000000000000007E
:1032500000000000D803F80F380C181818181818B8
:10326000181818181818380CF80FD8031800180078
:103270001800180018000000000000000000000006
:1032800000000000C01BF01F301C18181818181878
:10329000181818181818301CF01FC01B0018001838
:1032A00000180018001800000000000000000000D6
:1032B00000000000B007F003700030003000300064
:1032C00030003000300030003000300000000000DE
:1032D00000000000000000000000000000000000EE
:1032E00000000000E003F003380E180C3800F00373
:1032F000C007000C180C380EF007E00300000000B7
:103300000000000000000000000000008000C0007D
:10331000C000C000F007F007C000C000C000C0003F
:10332000C000C000C000C000C0078007000000004F
:10333000000000000000000000000000000000008D
:10334000000000001818181818181818181818185D
:10335000181818181818381CF01FE0190000000081
:10336000000000000000000000000000000000005D
:10337000000000000C18180C180C180C3006300651
:103380003006600360036003C001C001000000005C
:10339000000000000000000000000000000000002D
:1033A00000000000C141C141C361636363636363A3
:1033B0003636363636361C1C1C1C1C1C0000000021
:1033C00000000000000000000000000000000000FD
:1033D000000000001C38381C300C6006C003C0031D
:1033E000C003C0036006300C381C1C38000000000D
:1033F00000000000000000000000000000000000CD
:10340000000000001830301830187018600C600C84
:10341000E00CC006C00680038003800380018001A9
:10342000C001F0007000000000000000000000007B
:1034300000000000FC1FFC1F000C000600038001C0
:10344000C000600030001800FC1FFC1F00000000DE
:103450000000000000000000000000038001C00028
:10346000C000C000C000C000C000600060003000AC
:1034700060004000C000C000C000C000C000C0002C
:103480008001000300000000000080018001800135
:103490008001800180018001800180018001800124
:1034A0008001800180018001800180018001800114
:1034B000800180018001000000006000C000C001A8
:1034C000800180018001800180010003000300066B
:1034D00000030001800180018001800180018001E2
:1034E000C0006000000000000000000000000000BC
:1034F0000000000000000000F010F81F080F00009E
:1035000000000000000000000000000000000000BB
:1035100000000000000000000000000000000000AB
:10352000000000000000000000000000000000009B
:10353000000000000000000000000000000000008B
:10354000000000000000000000000000000000007B
:103550000000C003300C0810042004200240024088
:10356000024002400240042004200810300CC00336
:10357000000000000000000000000000000000004B
:103580000000C003F00FF81FFC3FFC3FFE7FFE7FF2
:10359000FE7FFE7FFE7FFC3FFC3FF81FF00FC00365
:1035A000000000000000000000000000000000001B
:1035B000000000000000E007F00F18181818181895
:1035C000181818181818F00FE00700000000000085
:1035D00000000000000000000000000000000000EB
:1035E000000000000000E007F00FF81FF81FF81FB0
:1035F000F81FF81FF81FF00FE007000000000000A0
:1036000000000000000000000000000000000000BA
:1036100000000000000000000000000000000000AA
:103620008001C0036006300C18181818F81FF81F26
:10363000000000000000000000000000000000008A
:10364000000000000000000000000000000000007A
:103650008001C003E007F00FF81FF81FF81FF81FE4
:10366000000000000000000000000000000000005A
:10367000F81FF81F18181818300C6006C0038001D6
:10368000000000000000000000000000000000003A
:10369000000000000000000000000000000000002A
:1036A000F81FF81FF81FF81FF00FE007C003800194
:1036B000000000000000000000000000000000000A
:1036C00000000000000000000000000000000000FA
:1036D000000000000000E001F00198018C0186016B
:1036E00086018C019801F001E0010000000000005B
:1036F00000000000000000000000000000000000CA
:10370000000000000000E001F001F801FC01FE01F2
:10371000FE01FC01F801F001E001000000000000E2
:103720000000000000000000000000000000000099
:103730000000000000008007800F80198031806148
:10374000806180318019800F800700000000000038
:103750000000000000000000000000000000000069
:103760000000000000008007800F801F803F807FE6
:10377000807F803F801F800F8007000000000000D6
:1037800000000000000000000000C0012002200234
:103790004001300608080808080808080808080852
:1037A000080820022002200220022002200220021B
:1037B00020022002200200000000C001E003E0031C
:1037C000C001F007D80DD80DD80DD80DD80DD80DE3
:1037D000D80D60036003600360036003600360034F
:1037E00060036003600300000000C00120022002AB
:1037F00040013006080808080808041002200220CA
:1038000040012002200210040808080804100410D7
:1038100004200440000000000000C001E003E003B9
:10382000C001F007D80DD80DD80DCC19C631C26132
:10383000C001600360037006380C180C0C180C18DB
:103840000C300C60000000000600080020000000A2
:1038500070000000C81F00081000180020000000C1
:10386000700000004823000888380008000000208D
:103870002C0000007C0F0008B43800082C00002049
:10388000440500008C0F000800000000000000004C
:103890000000FFFF000000000000000000A24A043A
:1038A00000000000000000000102030406070809F0
:0438B0000000000014
:0400000508000145A9
:00000001FF
